{
  "_format": "hh-sol-artifact-1",
  "contractName": "PayrollManager",
  "sourceName": "contracts/PayrollManager.sol",
  "abi": [
    {
      "inputs": [
        {
          "internalType": "address",
          "name": "employer",
          "type": "address"
        }
      ],
      "stateMutability": "nonpayable",
      "type": "constructor"
    },
    {
      "inputs": [],
      "name": "AccessControlBadConfirmation",
      "type": "error"
    },
    {
      "inputs": [
        {
          "internalType": "address",
          "name": "account",
          "type": "address"
        },
        {
          "internalType": "bytes32",
          "name": "neededRole",
          "type": "bytes32"
        }
      ],
      "name": "AccessControlUnauthorizedAccount",
      "type": "error"
    },
    {
      "inputs": [],
      "name": "ReentrancyGuardReentrantCall",
      "type": "error"
    },
    {
      "anonymous": false,
      "inputs": [
        {
          "indexed": true,
          "internalType": "address",
          "name": "employee",
          "type": "address"
        },
        {
          "indexed": false,
          "internalType": "uint256",
          "name": "timestamp",
          "type": "uint256"
        },
        {
          "indexed": false,
          "internalType": "uint256",
          "name": "weekNumber",
          "type": "uint256"
        }
      ],
      "name": "ClockIn",
      "type": "event"
    },
    {
      "anonymous": false,
      "inputs": [
        {
          "indexed": true,
          "internalType": "address",
          "name": "employee",
          "type": "address"
        },
        {
          "indexed": false,
          "internalType": "uint256",
          "name": "timestamp",
          "type": "uint256"
        },
        {
          "indexed": false,
          "internalType": "uint256",
          "name": "secondsWorked",
          "type": "uint256"
        },
        {
          "indexed": false,
          "internalType": "uint256",
          "name": "weekNumber",
          "type": "uint256"
        }
      ],
      "name": "ClockOut",
      "type": "event"
    },
    {
      "anonymous": false,
      "inputs": [
        {
          "indexed": true,
          "internalType": "address",
          "name": "wallet",
          "type": "address"
        }
      ],
      "name": "EmployeeDeactivated",
      "type": "event"
    },
    {
      "anonymous": false,
      "inputs": [
        {
          "indexed": true,
          "internalType": "address",
          "name": "wallet",
          "type": "address"
        },
        {
          "indexed": false,
          "internalType": "string",
          "name": "name",
          "type": "string"
        },
        {
          "indexed": false,
          "internalType": "uint256",
          "name": "timestamp",
          "type": "uint256"
        }
      ],
      "name": "EmployeeRegistered",
      "type": "event"
    },
    {
      "anonymous": false,
      "inputs": [
        {
          "indexed": true,
          "internalType": "address",
          "name": "sender",
          "type": "address"
        },
        {
          "indexed": false,
          "internalType": "uint256",
          "name": "amount",
          "type": "uint256"
        }
      ],
      "name": "FundsDeposited",
      "type": "event"
    },
    {
      "anonymous": false,
      "inputs": [
        {
          "indexed": true,
          "internalType": "address",
          "name": "wallet",
          "type": "address"
        },
        {
          "indexed": false,
          "internalType": "uint256",
          "name": "newRateWei",
          "type": "uint256"
        }
      ],
      "name": "HourlyRateUpdated",
      "type": "event"
    },
    {
      "anonymous": false,
      "inputs": [
        {
          "indexed": true,
          "internalType": "address",
          "name": "employee",
          "type": "address"
        },
        {
          "indexed": false,
          "internalType": "uint256",
          "name": "weekNumber",
          "type": "uint256"
        },
        {
          "indexed": false,
          "internalType": "uint256",
          "name": "amount",
          "type": "uint256"
        },
        {
          "indexed": false,
          "internalType": "uint256",
          "name": "timestamp",
          "type": "uint256"
        }
      ],
      "name": "PayrollExecuted",
      "type": "event"
    },
    {
      "anonymous": false,
      "inputs": [
        {
          "indexed": true,
          "internalType": "bytes32",
          "name": "role",
          "type": "bytes32"
        },
        {
          "indexed": true,
          "internalType": "bytes32",
          "name": "previousAdminRole",
          "type": "bytes32"
        },
        {
          "indexed": true,
          "internalType": "bytes32",
          "name": "newAdminRole",
          "type": "bytes32"
        }
      ],
      "name": "RoleAdminChanged",
      "type": "event"
    },
    {
      "anonymous": false,
      "inputs": [
        {
          "indexed": true,
          "internalType": "bytes32",
          "name": "role",
          "type": "bytes32"
        },
        {
          "indexed": true,
          "internalType": "address",
          "name": "account",
          "type": "address"
        },
        {
          "indexed": true,
          "internalType": "address",
          "name": "sender",
          "type": "address"
        }
      ],
      "name": "RoleGranted",
      "type": "event"
    },
    {
      "anonymous": false,
      "inputs": [
        {
          "indexed": true,
          "internalType": "bytes32",
          "name": "role",
          "type": "bytes32"
        },
        {
          "indexed": true,
          "internalType": "address",
          "name": "account",
          "type": "address"
        },
        {
          "indexed": true,
          "internalType": "address",
          "name": "sender",
          "type": "address"
        }
      ],
      "name": "RoleRevoked",
      "type": "event"
    },
    {
      "inputs": [],
      "name": "DEFAULT_ADMIN_ROLE",
      "outputs": [
        {
          "internalType": "bytes32",
          "name": "",
          "type": "bytes32"
        }
      ],
      "stateMutability": "view",
      "type": "function"
    },
    {
      "inputs": [],
      "name": "EMPLOYEE_ROLE",
      "outputs": [
        {
          "internalType": "bytes32",
          "name": "",
          "type": "bytes32"
        }
      ],
      "stateMutability": "view",
      "type": "function"
    },
    {
      "inputs": [],
      "name": "EMPLOYER_ROLE",
      "outputs": [
        {
          "internalType": "bytes32",
          "name": "",
          "type": "bytes32"
        }
      ],
      "stateMutability": "view",
      "type": "function"
    },
    {
      "inputs": [],
      "name": "MAX_HOURS_PER_DAY",
      "outputs": [
        {
          "internalType": "uint256",
          "name": "",
          "type": "uint256"
        }
      ],
      "stateMutability": "view",
      "type": "function"
    },
    {
      "inputs": [],
      "name": "SECONDS_PER_HOUR",
      "outputs": [
        {
          "internalType": "uint256",
          "name": "",
          "type": "uint256"
        }
      ],
      "stateMutability": "view",
      "type": "function"
    },
    {
      "inputs": [],
      "name": "WORK_END_HOUR",
      "outputs": [
        {
          "internalType": "uint256",
          "name": "",
          "type": "uint256"
        }
      ],
      "stateMutability": "view",
      "type": "function"
    },
    {
      "inputs": [],
      "name": "WORK_START_HOUR",
      "outputs": [
        {
          "internalType": "uint256",
          "name": "",
          "type": "uint256"
        }
      ],
      "stateMutability": "view",
      "type": "function"
    },
    {
      "inputs": [
        {
          "internalType": "uint256",
          "name": "clockInTime",
          "type": "uint256"
        },
        {
          "internalType": "uint256",
          "name": "clockOutTime",
          "type": "uint256"
        }
      ],
      "name": "calculateEffectiveSeconds",
      "outputs": [
        {
          "internalType": "uint256",
          "name": "",
          "type": "uint256"
        }
      ],
      "stateMutability": "pure",
      "type": "function"
    },
    {
      "inputs": [],
      "name": "clockIn",
      "outputs": [],
      "stateMutability": "nonpayable",
      "type": "function"
    },
    {
      "inputs": [],
      "name": "clockOut",
      "outputs": [],
      "stateMutability": "nonpayable",
      "type": "function"
    },
    {
      "inputs": [
        {
          "internalType": "uint256",
          "name": "",
          "type": "uint256"
        },
        {
          "internalType": "address",
          "name": "",
          "type": "address"
        }
      ],
      "name": "clockedIn",
      "outputs": [
        {
          "internalType": "bool",
          "name": "",
          "type": "bool"
        }
      ],
      "stateMutability": "view",
      "type": "function"
    },
    {
      "inputs": [
        {
          "internalType": "address",
          "name": "",
          "type": "address"
        }
      ],
      "name": "currentlyClockedIn",
      "outputs": [
        {
          "internalType": "bool",
          "name": "",
          "type": "bool"
        }
      ],
      "stateMutability": "view",
      "type": "function"
    },
    {
      "inputs": [
        {
          "internalType": "address",
          "name": "wallet",
          "type": "address"
        }
      ],
      "name": "deactivateEmployee",
      "outputs": [],
      "stateMutability": "nonpayable",
      "type": "function"
    },
    {
      "inputs": [
        {
          "internalType": "uint256",
          "name": "",
          "type": "uint256"
        }
      ],
      "name": "employeeList",
      "outputs": [
        {
          "internalType": "address",
          "name": "",
          "type": "address"
        }
      ],
      "stateMutability": "view",
      "type": "function"
    },
    {
      "inputs": [
        {
          "internalType": "address",
          "name": "",
          "type": "address"
        }
      ],
      "name": "employees",
      "outputs": [
        {
          "internalType": "address",
          "name": "wallet",
          "type": "address"
        },
        {
          "internalType": "string",
          "name": "name",
          "type": "string"
        },
        {
          "internalType": "uint256",
          "name": "hourlyRateWei",
          "type": "uint256"
        },
        {
          "internalType": "bool",
          "name": "active",
          "type": "bool"
        },
        {
          "internalType": "uint256",
          "name": "registeredAt",
          "type": "uint256"
        },
        {
          "internalType": "string",
          "name": "storageKey",
          "type": "string"
        }
      ],
      "stateMutability": "view",
      "type": "function"
    },
    {
      "inputs": [
        {
          "internalType": "address[]",
          "name": "wallets",
          "type": "address[]"
        },
        {
          "internalType": "uint256",
          "name": "weekNumber",
          "type": "uint256"
        }
      ],
      "name": "executePayroll",
      "outputs": [],
      "stateMutability": "nonpayable",
      "type": "function"
    },
    {
      "inputs": [],
      "name": "getAllEmployees",
      "outputs": [
        {
          "components": [
            {
              "internalType": "address",
              "name": "wallet",
              "type": "address"
            },
            {
              "internalType": "string",
              "name": "name",
              "type": "string"
            },
            {
              "internalType": "uint256",
              "name": "hourlyRateWei",
              "type": "uint256"
            },
            {
              "internalType": "bool",
              "name": "active",
              "type": "bool"
            },
            {
              "internalType": "uint256",
              "name": "registeredAt",
              "type": "uint256"
            },
            {
              "internalType": "string",
              "name": "storageKey",
              "type": "string"
            }
          ],
          "internalType": "struct PayrollManager.Employee[]",
          "name": "",
          "type": "tuple[]"
        }
      ],
      "stateMutability": "view",
      "type": "function"
    },
    {
      "inputs": [],
      "name": "getContractBalance",
      "outputs": [
        {
          "internalType": "uint256",
          "name": "",
          "type": "uint256"
        }
      ],
      "stateMutability": "view",
      "type": "function"
    },
    {
      "inputs": [],
      "name": "getEmployeeCount",
      "outputs": [
        {
          "internalType": "uint256",
          "name": "",
          "type": "uint256"
        }
      ],
      "stateMutability": "view",
      "type": "function"
    },
    {
      "inputs": [
        {
          "internalType": "address",
          "name": "emp",
          "type": "address"
        },
        {
          "internalType": "uint256",
          "name": "weekNumber",
          "type": "uint256"
        }
      ],
      "name": "getPayrollRecord",
      "outputs": [
        {
          "components": [
            {
              "internalType": "address",
              "name": "employee",
              "type": "address"
            },
            {
              "internalType": "uint256",
              "name": "weekNumber",
              "type": "uint256"
            },
            {
              "internalType": "uint256",
              "name": "hoursWorked",
              "type": "uint256"
            },
            {
              "internalType": "uint256",
              "name": "amountPaid",
              "type": "uint256"
            },
            {
              "internalType": "uint256",
              "name": "paidAt",
              "type": "uint256"
            },
            {
              "internalType": "bool",
              "name": "paid",
              "type": "bool"
            }
          ],
          "internalType": "struct PayrollManager.PayrollRecord",
          "name": "",
          "type": "tuple"
        }
      ],
      "stateMutability": "view",
      "type": "function"
    },
    {
      "inputs": [
        {
          "internalType": "bytes32",
          "name": "role",
          "type": "bytes32"
        }
      ],
      "name": "getRoleAdmin",
      "outputs": [
        {
          "internalType": "bytes32",
          "name": "",
          "type": "bytes32"
        }
      ],
      "stateMutability": "view",
      "type": "function"
    },
    {
      "inputs": [
        {
          "internalType": "uint256",
          "name": "timestamp",
          "type": "uint256"
        }
      ],
      "name": "getWeekNumber",
      "outputs": [
        {
          "internalType": "uint256",
          "name": "",
          "type": "uint256"
        }
      ],
      "stateMutability": "pure",
      "type": "function"
    },
    {
      "inputs": [
        {
          "internalType": "address",
          "name": "emp",
          "type": "address"
        },
        {
          "internalType": "uint256",
          "name": "weekNumber",
          "type": "uint256"
        }
      ],
      "name": "getWeeklyHours",
      "outputs": [
        {
          "internalType": "uint256",
          "name": "seconds_",
          "type": "uint256"
        },
        {
          "internalType": "uint256",
          "name": "hours_",
          "type": "uint256"
        }
      ],
      "stateMutability": "view",
      "type": "function"
    },
    {
      "inputs": [
        {
          "internalType": "bytes32",
          "name": "role",
          "type": "bytes32"
        },
        {
          "internalType": "address",
          "name": "account",
          "type": "address"
        }
      ],
      "name": "grantRole",
      "outputs": [],
      "stateMutability": "nonpayable",
      "type": "function"
    },
    {
      "inputs": [
        {
          "internalType": "bytes32",
          "name": "role",
          "type": "bytes32"
        },
        {
          "internalType": "address",
          "name": "account",
          "type": "address"
        }
      ],
      "name": "hasRole",
      "outputs": [
        {
          "internalType": "bool",
          "name": "",
          "type": "bool"
        }
      ],
      "stateMutability": "view",
      "type": "function"
    },
    {
      "inputs": [
        {
          "internalType": "address",
          "name": "emp",
          "type": "address"
        }
      ],
      "name": "isClockedIn",
      "outputs": [
        {
          "internalType": "bool",
          "name": "",
          "type": "bool"
        }
      ],
      "stateMutability": "view",
      "type": "function"
    },
    {
      "inputs": [
        {
          "internalType": "address",
          "name": "",
          "type": "address"
        }
      ],
      "name": "isEmployee",
      "outputs": [
        {
          "internalType": "bool",
          "name": "",
          "type": "bool"
        }
      ],
      "stateMutability": "view",
      "type": "function"
    },
    {
      "inputs": [
        {
          "internalType": "address",
          "name": "",
          "type": "address"
        }
      ],
      "name": "lastClockIn",
      "outputs": [
        {
          "internalType": "uint256",
          "name": "",
          "type": "uint256"
        }
      ],
      "stateMutability": "view",
      "type": "function"
    },
    {
      "inputs": [
        {
          "internalType": "uint256",
          "name": "",
          "type": "uint256"
        },
        {
          "internalType": "address",
          "name": "",
          "type": "address"
        }
      ],
      "name": "payrollRecords",
      "outputs": [
        {
          "internalType": "address",
          "name": "employee",
          "type": "address"
        },
        {
          "internalType": "uint256",
          "name": "weekNumber",
          "type": "uint256"
        },
        {
          "internalType": "uint256",
          "name": "hoursWorked",
          "type": "uint256"
        },
        {
          "internalType": "uint256",
          "name": "amountPaid",
          "type": "uint256"
        },
        {
          "internalType": "uint256",
          "name": "paidAt",
          "type": "uint256"
        },
        {
          "internalType": "bool",
          "name": "paid",
          "type": "bool"
        }
      ],
      "stateMutability": "view",
      "type": "function"
    },
    {
      "inputs": [
        {
          "internalType": "address",
          "name": "wallet",
          "type": "address"
        },
        {
          "internalType": "string",
          "name": "name",
          "type": "string"
        },
        {
          "internalType": "uint256",
          "name": "hourlyRateWei",
          "type": "uint256"
        },
        {
          "internalType": "string",
          "name": "storageKey",
          "type": "string"
        }
      ],
      "name": "registerEmployee",
      "outputs": [],
      "stateMutability": "nonpayable",
      "type": "function"
    },
    {
      "inputs": [
        {
          "internalType": "bytes32",
          "name": "role",
          "type": "bytes32"
        },
        {
          "internalType": "address",
          "name": "callerConfirmation",
          "type": "address"
        }
      ],
      "name": "renounceRole",
      "outputs": [],
      "stateMutability": "nonpayable",
      "type": "function"
    },
    {
      "inputs": [
        {
          "internalType": "bytes32",
          "name": "role",
          "type": "bytes32"
        },
        {
          "internalType": "address",
          "name": "account",
          "type": "address"
        }
      ],
      "name": "revokeRole",
      "outputs": [],
      "stateMutability": "nonpayable",
      "type": "function"
    },
    {
      "inputs": [
        {
          "internalType": "bytes4",
          "name": "interfaceId",
          "type": "bytes4"
        }
      ],
      "name": "supportsInterface",
      "outputs": [
        {
          "internalType": "bool",
          "name": "",
          "type": "bool"
        }
      ],
      "stateMutability": "view",
      "type": "function"
    },
    {
      "inputs": [
        {
          "internalType": "address",
          "name": "wallet",
          "type": "address"
        },
        {
          "internalType": "uint256",
          "name": "newRateWei",
          "type": "uint256"
        }
      ],
      "name": "updateHourlyRate",
      "outputs": [],
      "stateMutability": "nonpayable",
      "type": "function"
    },
    {
      "inputs": [
        {
          "internalType": "uint256",
          "name": "",
          "type": "uint256"
        },
        {
          "internalType": "address",
          "name": "",
          "type": "address"
        }
      ],
      "name": "weeklySeconds",
      "outputs": [
        {
          "internalType": "uint256",
          "name": "",
          "type": "uint256"
        }
      ],
      "stateMutability": "view",
      "type": "function"
    },
    {
      "stateMutability": "payable",
      "type": "receive"
    }
  ],
  "bytecode": "0x60806040523480156200001157600080fd5b50604051620022ac380380620022ac833981016040819052620000349162000149565b60017f9b779b17422d0df92223018b32b4d1fa46e071723d6817e2486d003becc55f0055620000656000826200009a565b50620000927ffc7c36207174f786648d2e624616a4b40e15fd7f0268b4e36af5057f0c43c835826200009a565b50506200017b565b6000828152602081815260408083206001600160a01b038516845290915281205460ff166200013f576000838152602081815260408083206001600160a01b03861684529091529020805460ff19166001179055620000f63390565b6001600160a01b0316826001600160a01b0316847f2f8788117e7eff1d82e926ec794901d17c78024a50270940304540a733656f0d60405160405180910390a450600162000143565b5060005b92915050565b6000602082840312156200015c57600080fd5b81516001600160a01b03811681146200017457600080fd5b9392505050565b612121806200018b6000396000f3fe6080604052600436106102085760003560e01c80636c8aa97311610118578063c2a63e3b116100a0578063d547741f1161006f578063d547741f14610761578063e3366fed14610781578063ea66543f146107a3578063ed4928c8146107d3578063f9c06df1146107e857600080fd5b8063c2a63e3b146106aa578063c3b2d07a146106bf578063c919af7d146106f7578063d06789471461072f57600080fd5b80638cbe096e116100e75780638cbe096e146106205780639020bd2c1461064057806391d1485414610655578063929ca1a314610675578063a217fddf1461069557600080fd5b80636c8aa973146105ab5780636f9fb98a146105c0578063848eaac5146105d357806388799047146105f357600080fd5b80632c8132f01161019b5780634392609d1161016a5780634392609d146104ad5780634bc865bf146104c25780634df861261461056057806353d6fcec146105765780636a663e181461058b57600080fd5b80632c8132f0146103f75780632f2ff15d1461043257806333d310341461045457806336568abe1461048d57600080fd5b80631452c6a0116101d75780631452c6a0146103535780632426bb3814610383578063248a9ca3146103a55780632a4cab90146103d557600080fd5b806301ffc9a7146102495780630c824cb61461027e5780630dd7463c146102b3578063141a0fdf146102e157600080fd5b366102445760405134815233907f543ba50a5eec5e6178218e364b1d0f396157b3c8fa278522c2cb7fd99407d4749060200160405180910390a2005b600080fd5b34801561025557600080fd5b50610269610264366004611ac1565b610808565b60405190151581526020015b60405180910390f35b34801561028a57600080fd5b5061029e610299366004611b0e565b61083f565b60408051928352602083019190915201610275565b3480156102bf57600080fd5b506102d36102ce366004611b38565b610878565b604051908152602001610275565b3480156102ed57600080fd5b506103016102fc366004611b0e565b610954565b604051610275919081516001600160a01b031681526020808301519082015260408083015190820152606080830151908201526080808301519082015260a09182015115159181019190915260c00190565b34801561035f57600080fd5b5061026961036e366004611b5a565b60086020526000908152604090205460ff1681565b34801561038f57600080fd5b506102d36000805160206120ac83398151915281565b3480156103b157600080fd5b506102d36103c0366004611b75565b60009081526020819052604090206001015490565b3480156103e157600080fd5b506102d36000805160206120cc83398151915281565b34801561040357600080fd5b50610269610412366004611b8e565b600560209081526000928352604080842090915290825290205460ff1681565b34801561043e57600080fd5b5061045261044d366004611b8e565b610a07565b005b34801561046057600080fd5b5061026961046f366004611b5a565b6001600160a01b031660009081526008602052604090205460ff1690565b34801561049957600080fd5b506104526104a8366004611b8e565b610a32565b3480156104b957600080fd5b506102d3601181565b3480156104ce57600080fd5b506105276104dd366004611b8e565b600460208181526000938452604080852090915291835291208054600182015460028301546003840154948401546005909401546001600160a01b03909316949193909260ff1686565b604080516001600160a01b03909716875260208701959095529385019290925260608401526080830152151560a082015260c001610275565b34801561056c57600080fd5b506102d3610e1081565b34801561058257600080fd5b50610452610a6a565b34801561059757600080fd5b506104526105a6366004611b5a565b610b94565b3480156105b757600080fd5b506102d3600981565b3480156105cc57600080fd5b50476102d3565b3480156105df57600080fd5b506104526105ee366004611b0e565b610c7a565b3480156105ff57600080fd5b506102d361060e366004611b5a565b60076020526000908152604090205481565b34801561062c57600080fd5b506102d361063b366004611b75565b610d8c565b34801561064c57600080fd5b506102d3600881565b34801561066157600080fd5b50610269610670366004611b8e565b610dd7565b34801561068157600080fd5b50610452610690366004611bfa565b610e00565b3480156106a157600080fd5b506102d3600081565b3480156106b657600080fd5b506001546102d3565b3480156106cb57600080fd5b506106df6106da366004611b75565b6110b4565b6040516001600160a01b039091168152602001610275565b34801561070357600080fd5b506102d3610712366004611b8e565b600660209081526000928352604080842090915290825290205481565b34801561073b57600080fd5b5061074f61074a366004611b5a565b6110de565b60405161027596959493929190611cca565b34801561076d57600080fd5b5061045261077c366004611b8e565b611236565b34801561078d57600080fd5b5061079661125b565b6040516102759190611d21565b3480156107af57600080fd5b506102696107be366004611b5a565b60036020526000908152604090205460ff1681565b3480156107df57600080fd5b506104526114d9565b3480156107f457600080fd5b50610452610803366004611ddf565b611612565b60006001600160e01b03198216637965db0b60e01b148061083957506301ffc9a760e01b6001600160e01b03198316145b92915050565b60008181526006602090815260408083206001600160a01b03861684529091528120549061086f610e1083611e86565b90509250929050565b600082821161088957506000610839565b60006108986201518085611e86565b6108a59062015180611e9a565b905060006108b6610e106009611e9a565b6108c09083611eb1565b905060006108d1610e106011611e9a565b6108db9084611eb1565b905060008287106108ec57866108ee565b825b905060008287116108ff5786610901565b825b905081811161091857600095505050505050610839565b60006109248383611ec4565b90506000610935610e106008611e9a565b90508082116109445781610946565b805b9a9950505050505050505050565b6109986040518060c0016040528060006001600160a01b03168152602001600081526020016000815260200160008152602001600081526020016000151581525090565b5060009081526004602081815260408084206001600160a01b039586168552825292839020835160c081018552815490951685526001810154918501919091526002810154928401929092526003820154606084015281015460808301526005015460ff16151560a082015290565b600082815260208190526040902060010154610a2281611908565b610a2c8383611915565b50505050565b6001600160a01b0381163314610a5b5760405163334bd91960e11b815260040160405180910390fd5b610a6582826119a7565b505050565b6000805160206120cc833981519152610a8281611908565b3360009081526008602052604090205460ff16610ad75760405162461bcd60e51b815260206004820152600e60248201526d2737ba1031b637b1b5b2b21034b760911b60448201526064015b60405180910390fd5b33600090815260076020526040812054904290610af383610d8c565b90506000610b018484610878565b6000838152600660209081526040808320338452909152812080549293508392909190610b2f908490611eb1565b909155505033600081815260086020908152604091829020805460ff1916905581518681529081018490529081018490527fb74bf1daa0c00421bf686907ce568d722d807261b0f2646f7809e27e920b4fde9060600160405180910390a25050505050565b6000805160206120ac833981519152610bac81611908565b6001600160a01b03821660009081526003602052604090205460ff16610c065760405162461bcd60e51b815260206004820152600f60248201526e4e6f7420616e20656d706c6f79656560881b6044820152606401610ace565b6001600160a01b0382166000908152600260205260409020600301805460ff19169055610c416000805160206120cc833981519152836119a7565b506040516001600160a01b038316907fc752135f7e9dd8cd89164e7513feed89162e931129bc1c99a0d92d989e93757d90600090a25050565b6000805160206120ac833981519152610c9281611908565b6001600160a01b03831660009081526003602052604090205460ff16610cec5760405162461bcd60e51b815260206004820152600f60248201526e4e6f7420616e20656d706c6f79656560881b6044820152606401610ace565b60008211610d2f5760405162461bcd60e51b815260206004820152601060248201526f052617465206d757374206265203e20360841b6044820152606401610ace565b6001600160a01b03831660008181526002602081905260409182902001849055517fc6ed62c08060b016755f58ae6986aa26a3a714aba0f9518cf53a29219e325a1090610d7f9085815260200190565b60405180910390a2505050565b600080610d9c6201518084611e86565b905060006007610dad836003611eb1565b610db79190611ed7565b90506007610dc58284611ec4565b610dcf9190611e86565b949350505050565b6000918252602082815260408084206001600160a01b0393909316845291905290205460ff1690565b6000805160206120ac833981519152610e1881611908565b6001600160a01b038716610e605760405162461bcd60e51b815260206004820152600f60248201526e496e76616c6964206164647265737360881b6044820152606401610ace565b6001600160a01b03871660009081526003602052604090205460ff1615610ebe5760405162461bcd60e51b8152602060048201526012602482015271105b1c9958591e481c9959da5cdd195c995960721b6044820152606401610ace565b6040518060c00160405280886001600160a01b0316815260200187878080601f016020809104026020016040519081016040528093929190818152602001838380828437600092019190915250505090825250602080820187905260016040808401919091524260608401528051601f870183900483028101830190915285815260809092019190869086908190840183828082843760009201829052509390945250506001600160a01b038a81168252600260209081526040909220845181546001600160a01b0319169216919091178155908301519091506001820190610fa79082611f83565b5060408201516002820155606082015160038201805460ff19169115159190911790556080820151600482015560a08201516005820190610fe89082611f83565b5050506001600160a01b0387166000818152600360205260408120805460ff191660019081179091558054808201825591527fb10e2d527612073b26eecdfd717e6a320cf44b4afac2b0732d9fcbe2b7fa0cf60180546001600160a01b03191690911790556110656000805160206120cc83398151915288611915565b50866001600160a01b03167fd60d97e0dcb91a0b36044d5194779610ea660bdd36d94cf3e002eb50b505a7d78787426040516110a393929190612043565b60405180910390a250505050505050565b600181815481106110c457600080fd5b6000918252602090912001546001600160a01b0316905081565b600260205260009081526040902080546001820180546001600160a01b03909216929161110a90611f01565b80601f016020809104026020016040519081016040528092919081815260200182805461113690611f01565b80156111835780601f1061115857610100808354040283529160200191611183565b820191906000526020600020905b81548152906001019060200180831161116657829003601f168201915b5050506002840154600385015460048601546005870180549697939660ff9093169550909350906111b390611f01565b80601f01602080910402602001604051908101604052809291908181526020018280546111df90611f01565b801561122c5780601f106112015761010080835404028352916020019161122c565b820191906000526020600020905b81548152906001019060200180831161120f57829003601f168201915b5050505050905086565b60008281526020819052604090206001015461125181611908565b610a2c83836119a7565b60015460609060009067ffffffffffffffff81111561127c5761127c611eeb565b6040519080825280602002602001820160405280156112f157816020015b6112de6040518060c0016040528060006001600160a01b03168152602001606081526020016000815260200160001515815260200160008152602001606081525090565b81526020019060019003908161129a5790505b50905060005b6001548110156114d35760026000600183815481106113185761131861207c565b60009182526020808320909101546001600160a01b039081168452838201949094526040928301909120825160c08101909352805490931682526001830180549293929184019161136890611f01565b80601f016020809104026020016040519081016040528092919081815260200182805461139490611f01565b80156113e15780601f106113b6576101008083540402835291602001916113e1565b820191906000526020600020905b8154815290600101906020018083116113c457829003601f168201915b505050918352505060028201546020820152600382015460ff16151560408201526004820154606082015260058201805460809092019161142190611f01565b80601f016020809104026020016040519081016040528092919081815260200182805461144d90611f01565b801561149a5780601f1061146f5761010080835404028352916020019161149a565b820191906000526020600020905b81548152906001019060200180831161147d57829003601f168201915b5050505050815250508282815181106114b5576114b561207c565b602002602001018190525080806114cb90612092565b9150506112f7565b50919050565b6000805160206120cc8339815191526114f181611908565b3360009081526002602052604090206003015460ff166115495760405162461bcd60e51b8152602060048201526013602482015272456d706c6f796565206e6f742061637469766560681b6044820152606401610ace565b3360009081526008602052604090205460ff161561159e5760405162461bcd60e51b815260206004820152601260248201527120b63932b0b23c9031b637b1b5b2b21034b760711b6044820152606401610ace565b336000908152600860209081526040808320805460ff191660011790556007909152812042908190556115d090610d8c565b604080514281526020810183905291925033917fde3e1a47194d7980c18cea3ca7254d8244ab8b3df9babca42f912480b85f9e01910160405180910390a25050565b61161a611a12565b6000805160206120ac83398151915261163281611908565b60005b838110156118dd5760008585838181106116515761165161207c565b90506020020160208101906116669190611b5a565b6001600160a01b03811660009081526003602052604090205490915060ff1615806116ad57506001600160a01b03811660009081526002602052604090206003015460ff16155b156116b857506118cb565b60008481526004602090815260408083206001600160a01b03851684529091529020600581015460ff16156116ee5750506118cb565b60008581526006602090815260408083206001600160a01b038616845290915281205490819003611721575050506118cb565b600061172f610e1083611e86565b6001600160a01b038516600090815260026020819052604082200154919250906117599083611e9a565b9050804710156117ab5760405162461bcd60e51b815260206004820152601d60248201527f496e73756666696369656e7420636f6e74726163742062616c616e63650000006044820152606401610ace565b83546001600160a01b0319166001600160a01b038616908117855560018086018a9055600286018590556003860183905542600487015560058601805460ff191690911790556040516000919083908381818185875af1925050503d8060008114611832576040519150601f19603f3d011682016040523d82523d6000602084013e611837565b606091505b50509050806118795760405162461bcd60e51b815260206004820152600e60248201526d14185e5b595b9d0819985a5b195960921b6044820152606401610ace565b604080518a815260208101849052428183015290516001600160a01b038816917f95bae3010be51c29fabf515e2b1d4fb5f757a07962b431bc2b8826128c0a6da6919081900360600190a25050505050505b806118d581612092565b915050611635565b5050610a6560017f9b779b17422d0df92223018b32b4d1fa46e071723d6817e2486d003becc55f0055565b6119128133611a40565b50565b60006119218383610dd7565b61199f576000838152602081815260408083206001600160a01b03861684529091529020805460ff191660011790556119573390565b6001600160a01b0316826001600160a01b0316847f2f8788117e7eff1d82e926ec794901d17c78024a50270940304540a733656f0d60405160405180910390a4506001610839565b506000610839565b60006119b38383610dd7565b1561199f576000838152602081815260408083206001600160a01b0386168085529252808320805460ff1916905551339286917ff6391f5c32d9c69d2a47ea670b442974b53935d1edc7fd64eb21e047a839171b9190a4506001610839565b611a1a611a7d565b60027f9b779b17422d0df92223018b32b4d1fa46e071723d6817e2486d003becc55f0055565b611a4a8282610dd7565b611a795760405163e2517d3f60e01b81526001600160a01b038216600482015260248101839052604401610ace565b5050565b7f9b779b17422d0df92223018b32b4d1fa46e071723d6817e2486d003becc55f0054600203611abf57604051633ee5aeb560e01b815260040160405180910390fd5b565b600060208284031215611ad357600080fd5b81356001600160e01b031981168114611aeb57600080fd5b9392505050565b80356001600160a01b0381168114611b0957600080fd5b919050565b60008060408385031215611b2157600080fd5b611b2a83611af2565b946020939093013593505050565b60008060408385031215611b4b57600080fd5b50508035926020909101359150565b600060208284031215611b6c57600080fd5b611aeb82611af2565b600060208284031215611b8757600080fd5b5035919050565b60008060408385031215611ba157600080fd5b8235915061086f60208401611af2565b60008083601f840112611bc357600080fd5b50813567ffffffffffffffff811115611bdb57600080fd5b602083019150836020828501011115611bf357600080fd5b9250929050565b60008060008060008060808789031215611c1357600080fd5b611c1c87611af2565b9550602087013567ffffffffffffffff80821115611c3957600080fd5b611c458a838b01611bb1565b9097509550604089013594506060890135915080821115611c6557600080fd5b50611c7289828a01611bb1565b979a9699509497509295939492505050565b6000815180845260005b81811015611caa57602081850181015186830182015201611c8e565b506000602082860101526020601f19601f83011685010191505092915050565b6001600160a01b038716815260c060208201819052600090611cee90830188611c84565b866040840152851515606084015284608084015282810360a0840152611d148185611c84565b9998505050505050505050565b60006020808301818452808551808352604092508286019150828160051b87010184880160005b83811015611dd157888303603f19018552815180516001600160a01b031684528781015160c089860181905290611d8182870182611c84565b838a0151878b01526060808501511515908801526080808501519088015260a093840151878203948801949094529150611dbd90508183611c84565b968901969450505090860190600101611d48565b509098975050505050505050565b600080600060408486031215611df457600080fd5b833567ffffffffffffffff80821115611e0c57600080fd5b818601915086601f830112611e2057600080fd5b813581811115611e2f57600080fd5b8760208260051b8501011115611e4457600080fd5b6020928301989097509590910135949350505050565b634e487b7160e01b600052601260045260246000fd5b634e487b7160e01b600052601160045260246000fd5b600082611e9557611e95611e5a565b500490565b808202811582820484141761083957610839611e70565b8082018082111561083957610839611e70565b8181038181111561083957610839611e70565b600082611ee657611ee6611e5a565b500690565b634e487b7160e01b600052604160045260246000fd5b600181811c90821680611f1557607f821691505b6020821081036114d357634e487b7160e01b600052602260045260246000fd5b601f821115610a6557600081815260208120601f850160051c81016020861015611f5c5750805b601f850160051c820191505b81811015611f7b57828155600101611f68565b505050505050565b815167ffffffffffffffff811115611f9d57611f9d611eeb565b611fb181611fab8454611f01565b84611f35565b602080601f831160018114611fe65760008415611fce5750858301515b600019600386901b1c1916600185901b178555611f7b565b600085815260208120601f198616915b8281101561201557888601518255948401946001909101908401611ff6565b50858210156120335787850151600019600388901b60f8161c191681555b5050505050600190811b01905550565b604081528260408201528284606083013760006060848301015260006060601f19601f8601168301019050826020830152949350505050565b634e487b7160e01b600052603260045260246000fd5b6000600182016120a4576120a4611e70565b506001019056fefc7c36207174f786648d2e624616a4b40e15fd7f0268b4e36af5057f0c43c8355a3425ea67e73c95853ecfc0c443062de292a303c186bc2aac1178ae1b86c62aa2646970667358221220a3f70aab5c147f949ffc9baa3e21c8a0ba41b66f115f7c88eaa81d7ab4fb32e664736f6c63430008140033",
  "linkReferences": {},
  "deployedLinkReferences": {}
}