{
  "_format": "hh-sol-artifact-1",
  "contractName": "PayrollManager",
  "sourceName": "contracts/PayrollManager.sol",
  "abi": [
    {
      "inputs": [
        {
          "internalType": "address",
          "name": "employer",
          "type": "address"
        }
      ],
      "stateMutability": "nonpayable",
      "type": "constructor"
    },
    {
      "inputs": [],
      "name": "AccessControlBadConfirmation",
      "type": "error"
    },
    {
      "inputs": [
        {
          "internalType": "address",
          "name": "account",
          "type": "address"
        },
        {
          "internalType": "bytes32",
          "name": "neededRole",
          "type": "bytes32"
        }
      ],
      "name": "AccessControlUnauthorizedAccount",
      "type": "error"
    },
    {
      "inputs": [],
      "name": "ReentrancyGuardReentrantCall",
      "type": "error"
    },
    {
      "anonymous": false,
      "inputs": [
        {
          "indexed": true,
          "internalType": "address",
          "name": "employee",
          "type": "address"
        },
        {
          "indexed": false,
          "internalType": "uint256",
          "name": "timestamp",
          "type": "uint256"
        },
        {
          "indexed": false,
          "internalType": "uint256",
          "name": "weekNumber",
          "type": "uint256"
        }
      ],
      "name": "ClockIn",
      "type": "event"
    },
    {
      "anonymous": false,
      "inputs": [
        {
          "indexed": true,
          "internalType": "address",
          "name": "employee",
          "type": "address"
        },
        {
          "indexed": false,
          "internalType": "uint256",
          "name": "timestamp",
          "type": "uint256"
        },
        {
          "indexed": false,
          "internalType": "uint256",
          "name": "secondsWorked",
          "type": "uint256"
        },
        {
          "indexed": false,
          "internalType": "uint256",
          "name": "weekNumber",
          "type": "uint256"
        }
      ],
      "name": "ClockOut",
      "type": "event"
    },
    {
      "anonymous": false,
      "inputs": [
        {
          "indexed": true,
          "internalType": "address",
          "name": "wallet",
          "type": "address"
        }
      ],
      "name": "EmployeeDeactivated",
      "type": "event"
    },
    {
      "anonymous": false,
      "inputs": [
        {
          "indexed": true,
          "internalType": "address",
          "name": "wallet",
          "type": "address"
        },
        {
          "indexed": false,
          "internalType": "string",
          "name": "name",
          "type": "string"
        },
        {
          "indexed": false,
          "internalType": "uint256",
          "name": "timestamp",
          "type": "uint256"
        }
      ],
      "name": "EmployeeRegistered",
      "type": "event"
    },
    {
      "anonymous": false,
      "inputs": [
        {
          "indexed": true,
          "internalType": "address",
          "name": "sender",
          "type": "address"
        },
        {
          "indexed": false,
          "internalType": "uint256",
          "name": "amount",
          "type": "uint256"
        }
      ],
      "name": "FundsDeposited",
      "type": "event"
    },
    {
      "anonymous": false,
      "inputs": [
        {
          "indexed": true,
          "internalType": "address",
          "name": "employee",
          "type": "address"
        },
        {
          "indexed": false,
          "internalType": "uint256",
          "name": "weekNumber",
          "type": "uint256"
        },
        {
          "indexed": false,
          "internalType": "uint256",
          "name": "amount",
          "type": "uint256"
        },
        {
          "indexed": false,
          "internalType": "uint256",
          "name": "timestamp",
          "type": "uint256"
        }
      ],
      "name": "PayrollExecuted",
      "type": "event"
    },
    {
      "anonymous": false,
      "inputs": [
        {
          "indexed": true,
          "internalType": "bytes32",
          "name": "role",
          "type": "bytes32"
        },
        {
          "indexed": true,
          "internalType": "bytes32",
          "name": "previousAdminRole",
          "type": "bytes32"
        },
        {
          "indexed": true,
          "internalType": "bytes32",
          "name": "newAdminRole",
          "type": "bytes32"
        }
      ],
      "name": "RoleAdminChanged",
      "type": "event"
    },
    {
      "anonymous": false,
      "inputs": [
        {
          "indexed": true,
          "internalType": "bytes32",
          "name": "role",
          "type": "bytes32"
        },
        {
          "indexed": true,
          "internalType": "address",
          "name": "account",
          "type": "address"
        },
        {
          "indexed": true,
          "internalType": "address",
          "name": "sender",
          "type": "address"
        }
      ],
      "name": "RoleGranted",
      "type": "event"
    },
    {
      "anonymous": false,
      "inputs": [
        {
          "indexed": true,
          "internalType": "bytes32",
          "name": "role",
          "type": "bytes32"
        },
        {
          "indexed": true,
          "internalType": "address",
          "name": "account",
          "type": "address"
        },
        {
          "indexed": true,
          "internalType": "address",
          "name": "sender",
          "type": "address"
        }
      ],
      "name": "RoleRevoked",
      "type": "event"
    },
    {
      "inputs": [],
      "name": "DEFAULT_ADMIN_ROLE",
      "outputs": [
        {
          "internalType": "bytes32",
          "name": "",
          "type": "bytes32"
        }
      ],
      "stateMutability": "view",
      "type": "function"
    },
    {
      "inputs": [],
      "name": "EMPLOYEE_ROLE",
      "outputs": [
        {
          "internalType": "bytes32",
          "name": "",
          "type": "bytes32"
        }
      ],
      "stateMutability": "view",
      "type": "function"
    },
    {
      "inputs": [],
      "name": "EMPLOYER_ROLE",
      "outputs": [
        {
          "internalType": "bytes32",
          "name": "",
          "type": "bytes32"
        }
      ],
      "stateMutability": "view",
      "type": "function"
    },
    {
      "inputs": [],
      "name": "MAX_HOURS_PER_DAY",
      "outputs": [
        {
          "internalType": "uint256",
          "name": "",
          "type": "uint256"
        }
      ],
      "stateMutability": "view",
      "type": "function"
    },
    {
      "inputs": [],
      "name": "SECONDS_PER_HOUR",
      "outputs": [
        {
          "internalType": "uint256",
          "name": "",
          "type": "uint256"
        }
      ],
      "stateMutability": "view",
      "type": "function"
    },
    {
      "inputs": [],
      "name": "WORK_END_HOUR",
      "outputs": [
        {
          "internalType": "uint256",
          "name": "",
          "type": "uint256"
        }
      ],
      "stateMutability": "view",
      "type": "function"
    },
    {
      "inputs": [],
      "name": "WORK_START_HOUR",
      "outputs": [
        {
          "internalType": "uint256",
          "name": "",
          "type": "uint256"
        }
      ],
      "stateMutability": "view",
      "type": "function"
    },
    {
      "inputs": [
        {
          "internalType": "uint256",
          "name": "clockInTime",
          "type": "uint256"
        },
        {
          "internalType": "uint256",
          "name": "clockOutTime",
          "type": "uint256"
        }
      ],
      "name": "calculateEffectiveSeconds",
      "outputs": [
        {
          "internalType": "uint256",
          "name": "",
          "type": "uint256"
        }
      ],
      "stateMutability": "pure",
      "type": "function"
    },
    {
      "inputs": [],
      "name": "clockIn",
      "outputs": [],
      "stateMutability": "nonpayable",
      "type": "function"
    },
    {
      "inputs": [],
      "name": "clockOut",
      "outputs": [],
      "stateMutability": "nonpayable",
      "type": "function"
    },
    {
      "inputs": [
        {
          "internalType": "uint256",
          "name": "",
          "type": "uint256"
        },
        {
          "internalType": "address",
          "name": "",
          "type": "address"
        }
      ],
      "name": "clockedIn",
      "outputs": [
        {
          "internalType": "bool",
          "name": "",
          "type": "bool"
        }
      ],
      "stateMutability": "view",
      "type": "function"
    },
    {
      "inputs": [
        {
          "internalType": "address",
          "name": "",
          "type": "address"
        }
      ],
      "name": "currentlyClockedIn",
      "outputs": [
        {
          "internalType": "bool",
          "name": "",
          "type": "bool"
        }
      ],
      "stateMutability": "view",
      "type": "function"
    },
    {
      "inputs": [
        {
          "internalType": "address",
          "name": "wallet",
          "type": "address"
        }
      ],
      "name": "deactivateEmployee",
      "outputs": [],
      "stateMutability": "nonpayable",
      "type": "function"
    },
    {
      "inputs": [
        {
          "internalType": "uint256",
          "name": "",
          "type": "uint256"
        }
      ],
      "name": "employeeList",
      "outputs": [
        {
          "internalType": "address",
          "name": "",
          "type": "address"
        }
      ],
      "stateMutability": "view",
      "type": "function"
    },
    {
      "inputs": [
        {
          "internalType": "address",
          "name": "",
          "type": "address"
        }
      ],
      "name": "employees",
      "outputs": [
        {
          "internalType": "address",
          "name": "wallet",
          "type": "address"
        },
        {
          "internalType": "string",
          "name": "name",
          "type": "string"
        },
        {
          "internalType": "uint256",
          "name": "hourlyRateWei",
          "type": "uint256"
        },
        {
          "internalType": "bool",
          "name": "active",
          "type": "bool"
        },
        {
          "internalType": "uint256",
          "name": "registeredAt",
          "type": "uint256"
        },
        {
          "internalType": "string",
          "name": "storageKey",
          "type": "string"
        }
      ],
      "stateMutability": "view",
      "type": "function"
    },
    {
      "inputs": [
        {
          "internalType": "address[]",
          "name": "wallets",
          "type": "address[]"
        },
        {
          "internalType": "uint256",
          "name": "weekNumber",
          "type": "uint256"
        }
      ],
      "name": "executePayroll",
      "outputs": [],
      "stateMutability": "nonpayable",
      "type": "function"
    },
    {
      "inputs": [],
      "name": "getAllEmployees",
      "outputs": [
        {
          "components": [
            {
              "internalType": "address",
              "name": "wallet",
              "type": "address"
            },
            {
              "internalType": "string",
              "name": "name",
              "type": "string"
            },
            {
              "internalType": "uint256",
              "name": "hourlyRateWei",
              "type": "uint256"
            },
            {
              "internalType": "bool",
              "name": "active",
              "type": "bool"
            },
            {
              "internalType": "uint256",
              "name": "registeredAt",
              "type": "uint256"
            },
            {
              "internalType": "string",
              "name": "storageKey",
              "type": "string"
            }
          ],
          "internalType": "struct PayrollManager.Employee[]",
          "name": "",
          "type": "tuple[]"
        }
      ],
      "stateMutability": "view",
      "type": "function"
    },
    {
      "inputs": [],
      "name": "getContractBalance",
      "outputs": [
        {
          "internalType": "uint256",
          "name": "",
          "type": "uint256"
        }
      ],
      "stateMutability": "view",
      "type": "function"
    },
    {
      "inputs": [],
      "name": "getEmployeeCount",
      "outputs": [
        {
          "internalType": "uint256",
          "name": "",
          "type": "uint256"
        }
      ],
      "stateMutability": "view",
      "type": "function"
    },
    {
      "inputs": [
        {
          "internalType": "address",
          "name": "emp",
          "type": "address"
        },
        {
          "internalType": "uint256",
          "name": "weekNumber",
          "type": "uint256"
        }
      ],
      "name": "getPayrollRecord",
      "outputs": [
        {
          "components": [
            {
              "internalType": "address",
              "name": "employee",
              "type": "address"
            },
            {
              "internalType": "uint256",
              "name": "weekNumber",
              "type": "uint256"
            },
            {
              "internalType": "uint256",
              "name": "hoursWorked",
              "type": "uint256"
            },
            {
              "internalType": "uint256",
              "name": "amountPaid",
              "type": "uint256"
            },
            {
              "internalType": "uint256",
              "name": "paidAt",
              "type": "uint256"
            },
            {
              "internalType": "bool",
              "name": "paid",
              "type": "bool"
            }
          ],
          "internalType": "struct PayrollManager.PayrollRecord",
          "name": "",
          "type": "tuple"
        }
      ],
      "stateMutability": "view",
      "type": "function"
    },
    {
      "inputs": [
        {
          "internalType": "bytes32",
          "name": "role",
          "type": "bytes32"
        }
      ],
      "name": "getRoleAdmin",
      "outputs": [
        {
          "internalType": "bytes32",
          "name": "",
          "type": "bytes32"
        }
      ],
      "stateMutability": "view",
      "type": "function"
    },
    {
      "inputs": [
        {
          "internalType": "uint256",
          "name": "timestamp",
          "type": "uint256"
        }
      ],
      "name": "getWeekNumber",
      "outputs": [
        {
          "internalType": "uint256",
          "name": "",
          "type": "uint256"
        }
      ],
      "stateMutability": "pure",
      "type": "function"
    },
    {
      "inputs": [
        {
          "internalType": "address",
          "name": "emp",
          "type": "address"
        },
        {
          "internalType": "uint256",
          "name": "weekNumber",
          "type": "uint256"
        }
      ],
      "name": "getWeeklyHours",
      "outputs": [
        {
          "internalType": "uint256",
          "name": "seconds_",
          "type": "uint256"
        },
        {
          "internalType": "uint256",
          "name": "hours_",
          "type": "uint256"
        }
      ],
      "stateMutability": "view",
      "type": "function"
    },
    {
      "inputs": [
        {
          "internalType": "bytes32",
          "name": "role",
          "type": "bytes32"
        },
        {
          "internalType": "address",
          "name": "account",
          "type": "address"
        }
      ],
      "name": "grantRole",
      "outputs": [],
      "stateMutability": "nonpayable",
      "type": "function"
    },
    {
      "inputs": [
        {
          "internalType": "bytes32",
          "name": "role",
          "type": "bytes32"
        },
        {
          "internalType": "address",
          "name": "account",
          "type": "address"
        }
      ],
      "name": "hasRole",
      "outputs": [
        {
          "internalType": "bool",
          "name": "",
          "type": "bool"
        }
      ],
      "stateMutability": "view",
      "type": "function"
    },
    {
      "inputs": [
        {
          "internalType": "address",
          "name": "emp",
          "type": "address"
        }
      ],
      "name": "isClockedIn",
      "outputs": [
        {
          "internalType": "bool",
          "name": "",
          "type": "bool"
        }
      ],
      "stateMutability": "view",
      "type": "function"
    },
    {
      "inputs": [
        {
          "internalType": "address",
          "name": "",
          "type": "address"
        }
      ],
      "name": "isEmployee",
      "outputs": [
        {
          "internalType": "bool",
          "name": "",
          "type": "bool"
        }
      ],
      "stateMutability": "view",
      "type": "function"
    },
    {
      "inputs": [
        {
          "internalType": "address",
          "name": "",
          "type": "address"
        }
      ],
      "name": "lastClockIn",
      "outputs": [
        {
          "internalType": "uint256",
          "name": "",
          "type": "uint256"
        }
      ],
      "stateMutability": "view",
      "type": "function"
    },
    {
      "inputs": [
        {
          "internalType": "uint256",
          "name": "",
          "type": "uint256"
        },
        {
          "internalType": "address",
          "name": "",
          "type": "address"
        }
      ],
      "name": "payrollRecords",
      "outputs": [
        {
          "internalType": "address",
          "name": "employee",
          "type": "address"
        },
        {
          "internalType": "uint256",
          "name": "weekNumber",
          "type": "uint256"
        },
        {
          "internalType": "uint256",
          "name": "hoursWorked",
          "type": "uint256"
        },
        {
          "internalType": "uint256",
          "name": "amountPaid",
          "type": "uint256"
        },
        {
          "internalType": "uint256",
          "name": "paidAt",
          "type": "uint256"
        },
        {
          "internalType": "bool",
          "name": "paid",
          "type": "bool"
        }
      ],
      "stateMutability": "view",
      "type": "function"
    },
    {
      "inputs": [
        {
          "internalType": "address",
          "name": "wallet",
          "type": "address"
        },
        {
          "internalType": "string",
          "name": "name",
          "type": "string"
        },
        {
          "internalType": "uint256",
          "name": "hourlyRateWei",
          "type": "uint256"
        },
        {
          "internalType": "string",
          "name": "storageKey",
          "type": "string"
        }
      ],
      "name": "registerEmployee",
      "outputs": [],
      "stateMutability": "nonpayable",
      "type": "function"
    },
    {
      "inputs": [
        {
          "internalType": "bytes32",
          "name": "role",
          "type": "bytes32"
        },
        {
          "internalType": "address",
          "name": "callerConfirmation",
          "type": "address"
        }
      ],
      "name": "renounceRole",
      "outputs": [],
      "stateMutability": "nonpayable",
      "type": "function"
    },
    {
      "inputs": [
        {
          "internalType": "bytes32",
          "name": "role",
          "type": "bytes32"
        },
        {
          "internalType": "address",
          "name": "account",
          "type": "address"
        }
      ],
      "name": "revokeRole",
      "outputs": [],
      "stateMutability": "nonpayable",
      "type": "function"
    },
    {
      "inputs": [
        {
          "internalType": "bytes4",
          "name": "interfaceId",
          "type": "bytes4"
        }
      ],
      "name": "supportsInterface",
      "outputs": [
        {
          "internalType": "bool",
          "name": "",
          "type": "bool"
        }
      ],
      "stateMutability": "view",
      "type": "function"
    },
    {
      "inputs": [
        {
          "internalType": "uint256",
          "name": "",
          "type": "uint256"
        },
        {
          "internalType": "address",
          "name": "",
          "type": "address"
        }
      ],
      "name": "weeklySeconds",
      "outputs": [
        {
          "internalType": "uint256",
          "name": "",
          "type": "uint256"
        }
      ],
      "stateMutability": "view",
      "type": "function"
    },
    {
      "stateMutability": "payable",
      "type": "receive"
    }
  ],
  "bytecode": "0x60806040523480156200001157600080fd5b506040516200216f3803806200216f833981016040819052620000349162000149565b60017f9b779b17422d0df92223018b32b4d1fa46e071723d6817e2486d003becc55f0055620000656000826200009a565b50620000927ffc7c36207174f786648d2e624616a4b40e15fd7f0268b4e36af5057f0c43c835826200009a565b50506200017b565b6000828152602081815260408083206001600160a01b038516845290915281205460ff166200013f576000838152602081815260408083206001600160a01b03861684529091529020805460ff19166001179055620000f63390565b6001600160a01b0316826001600160a01b0316847f2f8788117e7eff1d82e926ec794901d17c78024a50270940304540a733656f0d60405160405180910390a450600162000143565b5060005b92915050565b6000602082840312156200015c57600080fd5b81516001600160a01b03811681146200017457600080fd5b9392505050565b611fe4806200018b6000396000f3fe6080604052600436106101fd5760003560e01c80636c8aa9731161010d578063c2a63e3b116100a0578063d547741f1161006f578063d547741f14610736578063e3366fed14610756578063ea66543f14610778578063ed4928c8146107a8578063f9c06df1146107bd57600080fd5b8063c2a63e3b1461067f578063c3b2d07a14610694578063c919af7d146106cc578063d06789471461070457600080fd5b80639020bd2c116100dc5780639020bd2c1461061557806391d148541461062a578063929ca1a31461064a578063a217fddf1461066a57600080fd5b80636c8aa973146105a05780636f9fb98a146105b557806388799047146105c85780638cbe096e146105f557600080fd5b80632c8132f0116101905780634392609d1161015f5780634392609d146104a25780634bc865bf146104b75780634df861261461055557806353d6fcec1461056b5780636a663e181461058057600080fd5b80632c8132f0146103ec5780632f2ff15d1461042757806333d310341461044957806336568abe1461048257600080fd5b80631452c6a0116101cc5780631452c6a0146103485780632426bb3814610378578063248a9ca31461039a5780632a4cab90146103ca57600080fd5b806301ffc9a71461023e5780630c824cb6146102735780630dd7463c146102a8578063141a0fdf146102d657600080fd5b366102395760405134815233907f543ba50a5eec5e6178218e364b1d0f396157b3c8fa278522c2cb7fd99407d4749060200160405180910390a2005b600080fd5b34801561024a57600080fd5b5061025e610259366004611984565b6107dd565b60405190151581526020015b60405180910390f35b34801561027f57600080fd5b5061029361028e3660046119d1565b610814565b6040805192835260208301919091520161026a565b3480156102b457600080fd5b506102c86102c33660046119fb565b61084d565b60405190815260200161026a565b3480156102e257600080fd5b506102f66102f13660046119d1565b610929565b60405161026a919081516001600160a01b031681526020808301519082015260408083015190820152606080830151908201526080808301519082015260a09182015115159181019190915260c00190565b34801561035457600080fd5b5061025e610363366004611a1d565b60086020526000908152604090205460ff1681565b34801561038457600080fd5b506102c8600080516020611f6f83398151915281565b3480156103a657600080fd5b506102c86103b5366004611a38565b60009081526020819052604090206001015490565b3480156103d657600080fd5b506102c8600080516020611f8f83398151915281565b3480156103f857600080fd5b5061025e610407366004611a51565b600560209081526000928352604080842090915290825290205460ff1681565b34801561043357600080fd5b50610447610442366004611a51565b6109dc565b005b34801561045557600080fd5b5061025e610464366004611a1d565b6001600160a01b031660009081526008602052604090205460ff1690565b34801561048e57600080fd5b5061044761049d366004611a51565b610a07565b3480156104ae57600080fd5b506102c8601181565b3480156104c357600080fd5b5061051c6104d2366004611a51565b600460208181526000938452604080852090915291835291208054600182015460028301546003840154948401546005909401546001600160a01b03909316949193909260ff1686565b604080516001600160a01b03909716875260208701959095529385019290925260608401526080830152151560a082015260c00161026a565b34801561056157600080fd5b506102c8610e1081565b34801561057757600080fd5b50610447610a3f565b34801561058c57600080fd5b5061044761059b366004611a1d565b610b69565b3480156105ac57600080fd5b506102c8600981565b3480156105c157600080fd5b50476102c8565b3480156105d457600080fd5b506102c86105e3366004611a1d565b60076020526000908152604090205481565b34801561060157600080fd5b506102c8610610366004611a38565b610c4f565b34801561062157600080fd5b506102c8600881565b34801561063657600080fd5b5061025e610645366004611a51565b610c9a565b34801561065657600080fd5b50610447610665366004611abd565b610cc3565b34801561067657600080fd5b506102c8600081565b34801561068b57600080fd5b506001546102c8565b3480156106a057600080fd5b506106b46106af366004611a38565b610f77565b6040516001600160a01b03909116815260200161026a565b3480156106d857600080fd5b506102c86106e7366004611a51565b600660209081526000928352604080842090915290825290205481565b34801561071057600080fd5b5061072461071f366004611a1d565b610fa1565b60405161026a96959493929190611b8d565b34801561074257600080fd5b50610447610751366004611a51565b6110f9565b34801561076257600080fd5b5061076b61111e565b60405161026a9190611be4565b34801561078457600080fd5b5061025e610793366004611a1d565b60036020526000908152604090205460ff1681565b3480156107b457600080fd5b5061044761139c565b3480156107c957600080fd5b506104476107d8366004611ca2565b6114d5565b60006001600160e01b03198216637965db0b60e01b148061080e57506301ffc9a760e01b6001600160e01b03198316145b92915050565b60008181526006602090815260408083206001600160a01b038616845290915281205490610844610e1083611d49565b90509250929050565b600082821161085e5750600061080e565b600061086d6201518085611d49565b61087a9062015180611d5d565b9050600061088b610e106009611d5d565b6108959083611d74565b905060006108a6610e106011611d5d565b6108b09084611d74565b905060008287106108c157866108c3565b825b905060008287116108d457866108d6565b825b90508181116108ed5760009550505050505061080e565b60006108f98383611d87565b9050600061090a610e106008611d5d565b9050808211610919578161091b565b805b9a9950505050505050505050565b61096d6040518060c0016040528060006001600160a01b03168152602001600081526020016000815260200160008152602001600081526020016000151581525090565b5060009081526004602081815260408084206001600160a01b039586168552825292839020835160c081018552815490951685526001810154918501919091526002810154928401929092526003820154606084015281015460808301526005015460ff16151560a082015290565b6000828152602081905260409020600101546109f7816117cb565b610a0183836117d8565b50505050565b6001600160a01b0381163314610a305760405163334bd91960e11b815260040160405180910390fd5b610a3a828261186a565b505050565b600080516020611f8f833981519152610a57816117cb565b3360009081526008602052604090205460ff16610aac5760405162461bcd60e51b815260206004820152600e60248201526d2737ba1031b637b1b5b2b21034b760911b60448201526064015b60405180910390fd5b33600090815260076020526040812054904290610ac883610c4f565b90506000610ad6848461084d565b6000838152600660209081526040808320338452909152812080549293508392909190610b04908490611d74565b909155505033600081815260086020908152604091829020805460ff1916905581518681529081018490529081018490527fb74bf1daa0c00421bf686907ce568d722d807261b0f2646f7809e27e920b4fde9060600160405180910390a25050505050565b600080516020611f6f833981519152610b81816117cb565b6001600160a01b03821660009081526003602052604090205460ff16610bdb5760405162461bcd60e51b815260206004820152600f60248201526e4e6f7420616e20656d706c6f79656560881b6044820152606401610aa3565b6001600160a01b0382166000908152600260205260409020600301805460ff19169055610c16600080516020611f8f8339815191528361186a565b506040516001600160a01b038316907fc752135f7e9dd8cd89164e7513feed89162e931129bc1c99a0d92d989e93757d90600090a25050565b600080610c5f6201518084611d49565b905060006007610c70836003611d74565b610c7a9190611d9a565b90506007610c888284611d87565b610c929190611d49565b949350505050565b6000918252602082815260408084206001600160a01b0393909316845291905290205460ff1690565b600080516020611f6f833981519152610cdb816117cb565b6001600160a01b038716610d235760405162461bcd60e51b815260206004820152600f60248201526e496e76616c6964206164647265737360881b6044820152606401610aa3565b6001600160a01b03871660009081526003602052604090205460ff1615610d815760405162461bcd60e51b8152602060048201526012602482015271105b1c9958591e481c9959da5cdd195c995960721b6044820152606401610aa3565b6040518060c00160405280886001600160a01b0316815260200187878080601f016020809104026020016040519081016040528093929190818152602001838380828437600092019190915250505090825250602080820187905260016040808401919091524260608401528051601f870183900483028101830190915285815260809092019190869086908190840183828082843760009201829052509390945250506001600160a01b038a81168252600260209081526040909220845181546001600160a01b0319169216919091178155908301519091506001820190610e6a9082611e46565b5060408201516002820155606082015160038201805460ff19169115159190911790556080820151600482015560a08201516005820190610eab9082611e46565b5050506001600160a01b0387166000818152600360205260408120805460ff191660019081179091558054808201825591527fb10e2d527612073b26eecdfd717e6a320cf44b4afac2b0732d9fcbe2b7fa0cf60180546001600160a01b0319169091179055610f28600080516020611f8f833981519152886117d8565b50866001600160a01b03167fd60d97e0dcb91a0b36044d5194779610ea660bdd36d94cf3e002eb50b505a7d7878742604051610f6693929190611f06565b60405180910390a250505050505050565b60018181548110610f8757600080fd5b6000918252602090912001546001600160a01b0316905081565b600260205260009081526040902080546001820180546001600160a01b039092169291610fcd90611dc4565b80601f0160208091040260200160405190810160405280929190818152602001828054610ff990611dc4565b80156110465780601f1061101b57610100808354040283529160200191611046565b820191906000526020600020905b81548152906001019060200180831161102957829003601f168201915b5050506002840154600385015460048601546005870180549697939660ff90931695509093509061107690611dc4565b80601f01602080910402602001604051908101604052809291908181526020018280546110a290611dc4565b80156110ef5780601f106110c4576101008083540402835291602001916110ef565b820191906000526020600020905b8154815290600101906020018083116110d257829003601f168201915b5050505050905086565b600082815260208190526040902060010154611114816117cb565b610a01838361186a565b60015460609060009067ffffffffffffffff81111561113f5761113f611dae565b6040519080825280602002602001820160405280156111b457816020015b6111a16040518060c0016040528060006001600160a01b03168152602001606081526020016000815260200160001515815260200160008152602001606081525090565b81526020019060019003908161115d5790505b50905060005b6001548110156113965760026000600183815481106111db576111db611f3f565b60009182526020808320909101546001600160a01b039081168452838201949094526040928301909120825160c08101909352805490931682526001830180549293929184019161122b90611dc4565b80601f016020809104026020016040519081016040528092919081815260200182805461125790611dc4565b80156112a45780601f10611279576101008083540402835291602001916112a4565b820191906000526020600020905b81548152906001019060200180831161128757829003601f168201915b505050918352505060028201546020820152600382015460ff1615156040820152600482015460608201526005820180546080909201916112e490611dc4565b80601f016020809104026020016040519081016040528092919081815260200182805461131090611dc4565b801561135d5780601f106113325761010080835404028352916020019161135d565b820191906000526020600020905b81548152906001019060200180831161134057829003601f168201915b50505050508152505082828151811061137857611378611f3f565b6020026020010181905250808061138e90611f55565b9150506111ba565b50919050565b600080516020611f8f8339815191526113b4816117cb565b3360009081526002602052604090206003015460ff1661140c5760405162461bcd60e51b8152602060048201526013602482015272456d706c6f796565206e6f742061637469766560681b6044820152606401610aa3565b3360009081526008602052604090205460ff16156114615760405162461bcd60e51b815260206004820152601260248201527120b63932b0b23c9031b637b1b5b2b21034b760711b6044820152606401610aa3565b336000908152600860209081526040808320805460ff1916600117905560079091528120429081905561149390610c4f565b604080514281526020810183905291925033917fde3e1a47194d7980c18cea3ca7254d8244ab8b3df9babca42f912480b85f9e01910160405180910390a25050565b6114dd6118d5565b600080516020611f6f8339815191526114f5816117cb565b60005b838110156117a057600085858381811061151457611514611f3f565b90506020020160208101906115299190611a1d565b6001600160a01b03811660009081526003602052604090205490915060ff16158061157057506001600160a01b03811660009081526002602052604090206003015460ff16155b1561157b575061178e565b60008481526004602090815260408083206001600160a01b03851684529091529020600581015460ff16156115b157505061178e565b60008581526006602090815260408083206001600160a01b0386168452909152812054908190036115e45750505061178e565b60006115f2610e1083611d49565b6001600160a01b0385166000908152600260208190526040822001549192509061161c9083611d5d565b90508047101561166e5760405162461bcd60e51b815260206004820152601d60248201527f496e73756666696369656e7420636f6e74726163742062616c616e63650000006044820152606401610aa3565b83546001600160a01b0319166001600160a01b038616908117855560018086018a9055600286018590556003860183905542600487015560058601805460ff191690911790556040516000919083908381818185875af1925050503d80600081146116f5576040519150601f19603f3d011682016040523d82523d6000602084013e6116fa565b606091505b505090508061173c5760405162461bcd60e51b815260206004820152600e60248201526d14185e5b595b9d0819985a5b195960921b6044820152606401610aa3565b604080518a815260208101849052428183015290516001600160a01b038816917f95bae3010be51c29fabf515e2b1d4fb5f757a07962b431bc2b8826128c0a6da6919081900360600190a25050505050505b8061179881611f55565b9150506114f8565b5050610a3a60017f9b779b17422d0df92223018b32b4d1fa46e071723d6817e2486d003becc55f0055565b6117d58133611903565b50565b60006117e48383610c9a565b611862576000838152602081815260408083206001600160a01b03861684529091529020805460ff1916600117905561181a3390565b6001600160a01b0316826001600160a01b0316847f2f8788117e7eff1d82e926ec794901d17c78024a50270940304540a733656f0d60405160405180910390a450600161080e565b50600061080e565b60006118768383610c9a565b15611862576000838152602081815260408083206001600160a01b0386168085529252808320805460ff1916905551339286917ff6391f5c32d9c69d2a47ea670b442974b53935d1edc7fd64eb21e047a839171b9190a450600161080e565b6118dd611940565b60027f9b779b17422d0df92223018b32b4d1fa46e071723d6817e2486d003becc55f0055565b61190d8282610c9a565b61193c5760405163e2517d3f60e01b81526001600160a01b038216600482015260248101839052604401610aa3565b5050565b7f9b779b17422d0df92223018b32b4d1fa46e071723d6817e2486d003becc55f005460020361198257604051633ee5aeb560e01b815260040160405180910390fd5b565b60006020828403121561199657600080fd5b81356001600160e01b0319811681146119ae57600080fd5b9392505050565b80356001600160a01b03811681146119cc57600080fd5b919050565b600080604083850312156119e457600080fd5b6119ed836119b5565b946020939093013593505050565b60008060408385031215611a0e57600080fd5b50508035926020909101359150565b600060208284031215611a2f57600080fd5b6119ae826119b5565b600060208284031215611a4a57600080fd5b5035919050565b60008060408385031215611a6457600080fd5b82359150610844602084016119b5565b60008083601f840112611a8657600080fd5b50813567ffffffffffffffff811115611a9e57600080fd5b602083019150836020828501011115611ab657600080fd5b9250929050565b60008060008060008060808789031215611ad657600080fd5b611adf876119b5565b9550602087013567ffffffffffffffff80821115611afc57600080fd5b611b088a838b01611a74565b9097509550604089013594506060890135915080821115611b2857600080fd5b50611b3589828a01611a74565b979a9699509497509295939492505050565b6000815180845260005b81811015611b6d57602081850181015186830182015201611b51565b506000602082860101526020601f19601f83011685010191505092915050565b6001600160a01b038716815260c060208201819052600090611bb190830188611b47565b866040840152851515606084015284608084015282810360a0840152611bd78185611b47565b9998505050505050505050565b60006020808301818452808551808352604092508286019150828160051b87010184880160005b83811015611c9457888303603f19018552815180516001600160a01b031684528781015160c089860181905290611c4482870182611b47565b838a0151878b01526060808501511515908801526080808501519088015260a093840151878203948801949094529150611c8090508183611b47565b968901969450505090860190600101611c0b565b509098975050505050505050565b600080600060408486031215611cb757600080fd5b833567ffffffffffffffff80821115611ccf57600080fd5b818601915086601f830112611ce357600080fd5b813581811115611cf257600080fd5b8760208260051b8501011115611d0757600080fd5b6020928301989097509590910135949350505050565b634e487b7160e01b600052601260045260246000fd5b634e487b7160e01b600052601160045260246000fd5b600082611d5857611d58611d1d565b500490565b808202811582820484141761080e5761080e611d33565b8082018082111561080e5761080e611d33565b8181038181111561080e5761080e611d33565b600082611da957611da9611d1d565b500690565b634e487b7160e01b600052604160045260246000fd5b600181811c90821680611dd857607f821691505b60208210810361139657634e487b7160e01b600052602260045260246000fd5b601f821115610a3a57600081815260208120601f850160051c81016020861015611e1f5750805b601f850160051c820191505b81811015611e3e57828155600101611e2b565b505050505050565b815167ffffffffffffffff811115611e6057611e60611dae565b611e7481611e6e8454611dc4565b84611df8565b602080601f831160018114611ea95760008415611e915750858301515b600019600386901b1c1916600185901b178555611e3e565b600085815260208120601f198616915b82811015611ed857888601518255948401946001909101908401611eb9565b5085821015611ef65787850151600019600388901b60f8161c191681555b5050505050600190811b01905550565b604081528260408201528284606083013760006060848301015260006060601f19601f8601168301019050826020830152949350505050565b634e487b7160e01b600052603260045260246000fd5b600060018201611f6757611f67611d33565b506001019056fefc7c36207174f786648d2e624616a4b40e15fd7f0268b4e36af5057f0c43c8355a3425ea67e73c95853ecfc0c443062de292a303c186bc2aac1178ae1b86c62aa2646970667358221220251c323fd81a3e3bd4059334c5c040a55da2a58476aee6b664a841e064af6d3c64736f6c63430008140033",
  "linkReferences": {},
  "deployedLinkReferences": {}
}